S01900004F7363696C6F73636F7052656E657361732E737265631C
S31500000000B020FE1FA55B000055560000A15B000056
S31500000010A15B0000A15B0000A15B000000000000E6
S31500000020000000000000000000000000A15B0000CE
S31500000030A15B0000000000003D710000E5710000BA
S31500000040455300009528000075170000E5170000CD
S315000000504D160000FFFFFFFFFFFFFFFFFFFFFFFF43
S31500000060FFFFFFFFFFFFFFFFFFFFFFFFFFFFFFFF9A
S31500000070FFFFFFFFFFFFFFFFFFFFFFFFFFFFFFFF8A
S31500000080FFFFFFFFFFFFFFFFFFFFFFFFFFFFFFFF7A
S31500000090FFFFFFFFFFFFFFFFFFFFFFFFFFFFFFFF6A
S31500000400FFFFFFFFFFFDFFFFFFFFFFFFFFFFFFFFF8
S31500000410FFFFFFFFFFFFFFFFFFFFFFFFFFFFFFFFE6
S31500000420FFFFFFFFFFFFFFFFFFFFFFFFFFFFFFFFD6
S31500000430FFFFFFFFFFFFFFFFFFFFFFFFFFFFFFFFC6
S31500000440FFFFFFFFFFFFFFFFFFFFFFFFFFFFFFFFB6
S31500000450FFFFFFFFFFFFFFFFFFFFFFFFFFFFFFFFA6
S31500000460FFFFFFFFFFFFFFFFFFFFFFFFFFFFFFFF96
S31500000470FFFFFFFFFFFFFFFFFFFFFFFFFFFFFFFF86
S31500000480FFFFFFFFFFFFFFFFFFFFFFFFFFFFFFFF76
S31500000490FFFFFFFFFFFFFFFFFFFFFFFFFFFFFFFF66
S315000004A0FFFFFFFFFFFFFFFFFFFFFFFFFFFFFFFF56
S315000004B0FFFFFFFFFFFFFFFFFFFFFFFFFFFFFFFF46
S315000004C0FFFFFFFFFFFFFFFFFFFFFFFFFFFFFFFF36
S315000004D0FFFFFFFFFFFFFFFFFFFFFFFFFFFFFFFF26
S315000004E0FFFFFFFFFFFFFFFFFFFFFFFFFFFFFFFF16
S315000004F0FFFFFFFFFFFFFFFFFFFFFFFFFFFFFFFF06
S31500000500CC04FE1F4B002010E804FE1FB6002B3063
S315000005108004FE1F860D14107804FE1F880D14201B
S315000005207C04FE1F870D1428200000002000010017
S315000005302F0000002F0001000C0001001100000038
S3150000054030000000300001002400000024000100FB
S3150000055024000200240003002400040024000500F7
S315000005601300000017000000230000002100000017
S31500000570210001000700000007000100070002003B
S315000005800700030007000400070005000700060037
S3150000059007000700120000004400000008000000E9
S315000005A00B00000041000000400000004000010078
S315000005B004000000430000002B0000002B000A008E
S315000005C02B000B002B000C002B000D002B00010054
S315000005D02B0002002B0003002B0004002B0005005B
S315000005E02B0006002B0007002B0008002B0009003B
S315000005F00600000006000A0006000B0006000C00BC
S3150000060006000D0006000E0006000F0006000100A1
S3150000061006000200060003000600040006000500AE
S31500000620060006000600070006000800060009008E
S315000006301500000015000100150002003100000041
S315000006402A00000045000000100000000301000021
S3150000065003000000030001000F0000000D00000071
S315000006602D000000420000002C0000002C000100BC
S315000006702C0002002C0003003200000028000000BD
S31500000680180000001400000014000100140002000D
S3150000069014000300140004001400050014000600F2
S315000006A014000700140008001400090034000000BC
S315000006B0340001001600000016000100350000009D
S315000006C03600000036000100220000003300000062
S315000006D033010000290000000348044B834202D086
S315000006E0034B03B118477047AC02FE1FAC02FE1F56
S315000006F0000000000548064B1B1AD90F01EBA301A9
S31500000700491002D0034B03B118477047AC02FE1FD5
S31500000710AC02FE1F0000000010B5064C237843B95A
S31500000720FFF7DAFF044B13B10448AFF3008001234F
S31500000730237010BDF402FE1F00000000989A00000E
S3150000074008B5054B1BB105490548AFF30080BDE868
S315000007500840FFF7CFBF00BF00000000F802FE1FF1
S31500000760989A000020B14FF00223036000207047E2
S31500000770012070478C468968002937D030B51D4660
S31500000780DCF8003083B073B3DCF804305BB31C686C
S315000007904CB3B4F802C011462CF4404222F02002B9
S315000007A06280037AE278A3F10203B3FA83F35B096A
S315000007B063F30512E27002780D4BADF806200024B3
S315000007C014221B69ADF8042000946A4601A89847D4
S315000007D09DF90030213306D0BDF80230AB802046AB
S315000007E0AC7103B030BD012003B030BD01207047AD
S315000007F08895000010B58368044623B19A6812B143
S31500000800D26918689047E36833B19A6822B1BDE8A7
S315000008101040D2691868104710BD00BF2DE9F04F8F
S3150000082089B0CDE902239DF84C203A4B069182F01F
S31500000830010100919846010AA0FB033ADDF848B091
S31500000840354D059001914FF00009079303E0334BB6
S3150000085006359D422CD02A79EB781343009A9342B1
S31500000860F5D1069B2F8803FB07F7059BB3FBF7F42F
S31500000870661EFF2EEBD807FB04F407982246E31703
S31500000880514606F031FEBBF1000F15D1A0F5C3307D
S31500000890A0380028B8BF40424045D8DA039B1D6007
S315000008A0029B1E701D4B06359D428046D946D2D10D
S315000008B0404609B0BDE8F08F04954D46DDF81C9022
S315000008C004E048465146013E06F00EFE019BB4FB8D
S315000008D0F3F27F2A02FB00F019D90028B8BFFF30D7
S315000008E00312A3F5C333A03B002BB8BF5B424345BD
S315000008F006DADDE903101546029A08609846167076
S31500000900E41B2246E317CBF80050002ED9D1A946A6
S31500000910049D9CE7A0860100208E00006E8E0000DC
S315000009202DE9F0411E46FF2384B013701E4B336041
S3150000093018B1002004B0BDE8F08115460B9A43F6C5
S3150000094097239A422BD80F4649B3044602A88DF83E
S31500000950084004F047FE154B03949B699DF8080078
S3150000096003A998470446D0B90A9BDDF80C8000938A
S31500000970012301932A46334639464046FFF74EFF88
S315000009800B9B8342D5DA0A9B0093019433462A4691
S3150000099039464046FFF742FF0B9B8342C9DA0320E4
S315000009A004B0BDE8F08100BF208E0000248F000057
S315000009B0002834D030B50D4683B0002931D01E4B07
S315000009C042689A42044627D10023C1E9003382686F
S315000009D0002A2DD0CDE90033936810689B696946DB
S315000009E09847E278009B02F0030202FB03F36B6078
S315000009F0E368CBB10022CDE900229A6818689369B2
S31500000A0069469847E278009B02F0030202FB03F373
S31500000A102B60002003B030BD072003B030BD01209D
S31500000A207047012003B030BD4FF0FF332B60F0E775
S31500000A304FF0FF334B60DBE75549435300283FD067
S31500000A4070B50E4682B059B352B3214B41689942F4
S31500000A50044637D1C37803F00301022923D0A068E6
S31500000A6003F0030328B3013B22FA03F50023CDE983
S31500000A700033836800689B6969469847009B9D42DE
S31500000A800ED8A17809BBA0680123A370846800680A
S31500000A906468ABB23246A04718B9002002B070BDF8
S31500000AA0012002B070BD46EA0201C907D7D503206E
S31500000AB0F7E7636B4BB9C4E90C62A3630020EDE76B
S31500000AC001207047072002B070BD082002B070BD3B
S31500000AD05549435390F83C30012B00D070470A4AE1
S31500000AE090F83D10126AC08F82B0019231B1DDEDEF
S31500000AF0017A194617EE903A02B0184707EE902A87
S31500000B0017EE903A02B01847788E0000C378016954
S31500000B10426A03F00303022B10B4447816D0097816
S31500000B207CB11379DB09FCD0D181D0E90421C378EB
S31500000B305DF8044B03F00303C91A1A44C0E9042103
S31500000B4070471379DB09FCD0D170EEE70988002CD9
S31500000B50E7D11379DB09E7D11379DB09F9D0E3E7AC
S31500000B6000285BD070B5314B42689A4286B0044685
S31500000B7016D1456AAB7813F0030314D1C2780593F6
S31500000B8012F00406C36A18BF05AECDE900630DF185
S31500000B900F0204AB0020FFF7C3FE38B106B070BDEC
S31500000BA0072006B070BD012006B070BDAB789DF879
S31500000BB00F2003F00B03AB702061AB7860F30103E9
S31500000BC0AB70049B6A70EA79997861F38612EA71D0
S31500000BD0EA79D97861F30412EA71EA79197961F34D
S31500000BE0C302EA715A792B7862F301032B7046B17E
S31500000BF03368FF2B14D8EA79DBB242F00402EA71BB
S31500000C00AB74AB7843F05003AB706378002BC5D15F
S31500000C10626A937843F020039370BFE70120704720
S31500000C20EB7960F38203EB71EBE700BF5549435361
S31500000C302DE9F04182B0002878D00E46002975D003
S31500000C401546002A72D04D4B42689A42044640F03F
S31500000C508280C37803F00303022B71D02369002B33
S31500000C6069D1A18F012903D1454BE08F1B6A9847B3
S31500000C70676ABB7803F07B03BB70E368C4E904656D
S31500000C80CBB10022CDE90022626194F803809A6814
S31500000C901868936908F0030808F1FF326946D540E1
S31500000CA09847009B9D4251D86378002B59D1013D4E
S31500000CB0C4F8148054D194F9190004F047FE94F94D
S31500000CC01930002B15DB5A092E4803F01F0360323A
S31500000CD0012101FA03F340F8223063784BB194F90D
S31500000CE01930002B05DB5A0903F01F03994040F821
S31500000CF02210BB7843F0A003BB7063788BB963699D
S31500000D0013B12046FFF702FF94F91930002B08DBD8
S31500000D101C495809012203F01F0302FA03F341F8A4
S31500000D2020300025284602B0BDE8F081012528467E
S31500000D3002B0BDE8F0810825284602B0BDE8F08182
S31500000D4041EA0503DB0789D50325F0E7012520469F
S31500000D50FFF7C0FEEBE70725284602B0BDE8F081A5
S31500000D604644E268ABB2956810686D683146002269
S31500000D70A847054600289ED0E9E700BF55494353DA
S31500000D80788E000000E100E02DE9F0411F4682B0B8
S31500000D901A4B089D1B6914460022019201AA984726
S31500000DA09DF904602E700546E0B92401002EE4B2D8
S31500000DB01CDB7309DFF85080203306F01F01012287
S31500000DC08A4048F82320BFF34F8FBFF36F8FB0449C
S31500000DD0304604F0BBFD88F80043094B1B6853F806
S31500000DE036301F60284602B0BDE8F081304604F078
S31500000DF0ADFD044B06F00F029C54EEE7889500000B
S31500000E006890000014ED00E000E100E0002879D0D1
S31500000E1030B53D4B42689A4283B004466FD1436A6F
S31500000E20002242609A7802F00B029A7090F918201C
S31500000E30002A0DDB5109354D2031012002F01F0239
S31500000E4000FA02F245F82120BFF34F8FBFF36F8FF0
S31500000E5094F91B20002A3FDA94F91920002A0DDBA9
S31500000E6051092A4D2031012002F01F0200FA02F238
S31500000E7045F82120BFF34F8FBFF36F8F94F91A20E7
S31500000E80002A0DDB5109214D2031012002F01F02FD
S31500000E9000FA02F245F82120BFF34F8FBFF36F8FA0
S31500000EA099789A7801F0020161F3010200259A709F
S31500000EB02046FFF79FFC2278E5611423A56201A86E
S31500000EC0ADF80620ADF8043004F0A8FC01A804F043
S31500000ED09BFD284603B030BD51090C4D2031012041
S31500000EE002F01F0200FA02F245F82120BFF34F8FED
S31500000EF0BFF36F8F94F91920002AB1DABEE70720F5
S31500000F0003B030BD012070475549435300E100E06E
S31500000F1070B5002800F08F804E4B42689A42044616
S31500000F2040F0868011F0FD0F0E4605D0012E4FF0E1
S31500000F30060568D9284670BD426A937803F07B039C
S31500000F40937090F9190004F001FD94F91930002B03
S31500000F5019DB590940482031012203F01F0302FA28
S31500000F6003F340F82130BFF34F8FBFF36F8F94F92F
S31500000F701930002B07DB590903F01F039A4001F1D2
S31500000F80600340F8232094F91A0004F0DFFC94F97A
S31500000F901A30002B19DB59092F482031012203F0A2
S31500000FA01F0302FA03F340F82130BFF34F8FBFF35C
S31500000FB06F8F94F91A30002B07DB590903F01F03D2
S31500000FC09A4001F1600340F82320E568002D35D0F2
S31500000FD0AB682868DB689847637805463BB1626A68
S31500000FE0938A43F004039382938A5907FCD400231F
S31500000FF0C4E904332046FFF76DFD002D9AD1012E7A
S315000010004FF0000596D8A5680DB30023A370AB6812
S315000010102868DB68984705466378002B8AD0636AA0
S31500001020DA8AD20686D09A8A42F002029A8281E74A
S315000010300725284670BD0125284670BD6378002B1C
S31500001040CDD1C4E904332046FFF744FDD7E7A563B5
S315000010506563E1E75549435300E100E02DE9F04FB0
S3150000106093B0002878D00E46002975D0404B4268D0
S315000010709A42044675D000230A78ADF81A20CDE9C5
S315000010800933CDE90B333B4B1422DB68ADF818204E
S3150000109009A906A89847054618B1284613B0BDE821
S315000010A0F08F099F676206A804F07CFC05460028BD
S315000010B0F3D1BDF82A30304A0790C3F38103D35CDD
S315000010C06370D6F8208042F21073E362B8F1000F25
S315000010D04BD098F80C3098F80090002B43D00DF1C7
S315000010E01C0AE27863F38202E270D8F81030E362F9
S315000010F0CDE900A30DF11702716808AB4846FFF76A
S315000011000FFC0546F0B904F11B030093F27B23465E
S31500001110012106A8FFF738FE04F118030093327B7D
S315000011200221234606A8FFF72FFE054650B904F113
S3150000113019030093727B2346052106A8FFF724FEB8
S315000011400546D8B12046FFF755FB06A804F05CFC1F
S31500001150284613B0BDE8F08F0125284613B0BDE838
S31500001160F08F082599E79A46BBE7C246C146BFE716
S3150000117055494353889500001C8E000004F11A035C
S315000011800093B27B2346042106A8FFF7FDFD054622
S315000011900028D7D13369A360E378012262F3010303
S315000011A07269E260E370337A022BE37814BF01229E
S315000011B0022262F30103E370D6F810B0BBF1000F10
S315000011C037D0DBF804E0BEE80F000DF1340CCDF8A3
S315000011D00CC0ACE80F00DEF80030CCF80030594601
S315000011E0039B02223046FFF7C5FA002840F05081E3
S315000011F0336960785B68616A1A68E37803F0030311
S31500001200002800F06381022B00F05E8111315388C3
S31500001210516023F4406323F00C0343F0080353802A
S31500001220336903999A68186813689847002840F04C
S315000012302F81D6F814B0BBF1000F37D0DBF804E0ED
S31500001240BEE80F000DF1340CCDF80CC0ACE80F0071
S31500001250DEF80030CCF800305946039B05223046B4
S31500001260FFF788FA002840F01381736960785B689D
S31500001270616A1A68E37803F00303002800F03581F9
S31500001280022B00F030810F315388916023F44063C4
S3150000129023F00C0343F400635380736903999A683F
S315000012A0186813689847002840F0F28098F81430C0
S315000012B084F83C3098F8153084F83D30B8F816308C
S315000012C0E3872046FFF706FC06A804F0D1FA0023C0
S315000012D03B70BB703A7902B13B71F221B9710023C0
S315000012E0FF224FF478417A70BA74FB713B727B72BD
S315000012F0BB72FB723B737B733B73B98240217B836A
S31500001300F97403213977062139779DF81700089972
S31500001310B9F1000F40F0BE80BB7869F30103BB70E2
S315000013207870FB798A7862F38613FB71FB79CA7849
S3150000133062F30413FB71FB790A7962F3C303FB7151
S315000013404A793B7862F301033B70BAF1000F0AD089
S31500001350DAF80030FF2B00F2CC80FA79DBB242F0EB
S315000013600402FA71BB746278636A1AB39A8A42F00D
S3150000137001029A829A8A42F002029A823269002A0D
S3150000138000F0BC809A8A22F470629A826278998A06
S31500001390013A62F30F3199829A8A42F004029A82E4
S315000013A09A8AC2F380015207FAD49A8A61F3071225
S315000013B09A82636A1A78717A42EA0112D2B21A7074
S315000013C0327A012A00F08680022A07D11A7822F0A2
S315000013D040021A709A7922F010029A711A78B17A3C
S315000013E061F3C3021A70F27A1AB15A7B42F0020212
S315000013F05A73326A92B1D979907860F3C711D9716C
S31500001400D979D07860F34511D971002119725178D4
S315000014109A7811439A7861F301029A7033782370AF
S31500001420F36923620023B269E261C4E90433A3705D
S315000014306363A363BA8A63F3C302BA82BB7843F0D9
S315000014401003BB7094F91830002B08DB3449580997
S31500001450012203F01F0302FA03F341F8203094F946
S315000014601B30002B08DB2E495809012203F01F030D
S3150000147002FA03F341F82030BB782A4943F04003CF
S31500001480BB70626A937843F020039370616004E650
S31500001490054657E67A70FA7963F38612FA71FA7995
S315000014A063F3C302FA713A7863F301023A70BB78C8
S315000014B0022262F301039145BB707FF454AFFB79BE
S315000014C043F01003FB714EE71031A0E6012BFBD170
S315000014D005319CE61A7842F040021A709A7942F079
S315000014E010029A717AE70E31CEE6012BFBD1033159
S315000014F0CAE6FB7969F38203FB7134E76278316AE5
S31500001500013A92B231B109790A40998A62F30B2104
S3150000151099823BE7998A62F30B21998236E700BFED
S3150000152000E100E0554943534278436A3AB11A7CD8
S315000015305B7C43EA0223C3F308030B607047C2785F
S3150000154002F00302022A03D05B79DBB20B6070471C
S315000015501A7C5B7C43EA02230B60704710B584B0AB
S31500001560026A436B0478039280220094ADF804204B
S315000015702BB9C36902916846984704B010BD826BC7
S315000015809342FAD9C378026B03F0030C6346022B2D
S31500001590CCB215D0836B634483631470036B013341
S315000015A0816B426B03639142E7D100230121C2693B
S315000015B0836343630293ADF8041068469047DCE703
S315000015C0836B634483631470036B090A5A1C0263BA
S315000015D05970036B0133E3E7F0B583B04378446A8F
S315000015E000220546019223B3FE27BF262771EB6929
S315000015F0BBB1E38AD8060CD0237C617C41EA032187
S31500001600C1F3080128460191FFF7A8FFE38AD9062E
S31500001610F2D126712379DB07E8D403B0F0BD237C31
S31500001620637CE38ADA06FAD126712379DB07DDD4F7
S31500001630F3E701A9FFF778FFC369002BEDD0019905
S3150000164003B0BDE8F040FFF789BF00BFF0B585B035
S31500001650EFF3058005F076F9EFF30380103840B21A
S3150000166004F074F9EFF30383404A103B12685BB24F
S3150000167052F833301C6824B1E568676A45B163697E
S31500001680F3B1EFF3058005B0BDE8F04005F058B9B9
S315000016906678002E62D0FB8AC3F30423F61A002E66
S315000016A007DD636920460BB1FFF730FA0135AE421C
S315000016B0F7D13B7923F080033B716369002BE0D1BE
S315000016C094F91A0004F042F994F91A30002B09DB58
S315000016D05A09274803F01F036032012101FA03F378
S315000016E040F82230BB7803F07F0343F00403BB705D
S315000016F094F91930002B0DDB5A091D4801212032BF
S3150000170003F01F0301FA03F340F82230BFF34F8FB3
S31500001710BFF36F8F94F91A30002B08DB1449580970
S31500001720012203F01F0302FA03F341F82030E369B4
S3150000173000222261002BA4D02578216A00954FF45F
S315000017408070ADF804000292039168469847EFF363
S31500001750058005B0BDE8F04005F0F2B86369002BDE
S31500001760AED02046FFF7D2F989E700BF68900000A7
S3150000177000E100E010B584B0EFF3058005F0E2F873
S31500001780EFF30380103840B204F0E0F8EFF3038380
S31500001790134A103B12685BB252F83330186878B1BE
S315000017A083780478012B12D1C269002181703AB185
S315000017B0006A0094CDE90210ADF8043068469047FF
S315000017C0EFF3058004B0BDE8104005F0B9B8FFF7A7
S315000017D003FFEFF3058004B0BDE8104005F0B0B894
S315000017E06890000030B585B0EFF3058005F0AAF8E3
S315000017F0EFF303831D4A103B12685BB252F8333095
S315000018001C681CB3626A2078937803F07B0393709C
S3150000181094F91A30002B0DDB5A09154D203201219F
S3150000182003F01F0301FA03F345F82230BFF34F8F8D
S31500001830BFF36F8FE3694BB1226A00900025022146
S315000018400295ADF80410039268469847EFF30380BB
S31500001850103840B204F07AF82046FFF73BF9EFF370
S31500001860058005B0BDE8304005F06AB86890000014
S3150000187000E100E0094B1A68B2EB102F4FEA102383
S3150000188001D80320704739B1054A12685B0104325A
S315000018900020D3580B80704701207047B002FE1F0E
S315000018A0C002FE1FCAB110B40D4C2468B4EB102F51
S315000018B04FEA102303D803205DF8044B704709480C
S315000018C0006822EA010408305B010A4042EA044249
S315000018D0C2505DF8044B002070470320704700BFDC
S315000018E0B002FE1FC002FE1F32B1114B1B68B3EBE4
S315000018F0102F4FEA102C01D80320704710B40D4B5F
S315000019004FEA4C1C1C6854F80C0002EA010303431E
S3150000191061EA020154F80C209BB20B406FF30F02F0
S31500001920134344F80C3000205DF8044B704700BFA9
S31500001930B002FE1FC002FE1F0A4B1A68B2EB102F40
S315000019404FEA102301D80320704741B1064A1268B6
S315000019505B0104320020D3581B0C0B80704701201A
S31500001960704700BFB002FE1FC002FE1F0B4B1B6874
S31500001970B3EB102F4FEA102C01D803207047002A32
S31500001980FBD0074B1B68083322EA010003EB4C131C
S315000019900A4042EA00425A6000207047B002FE1F29
S315000019A0C002FE1F20B14FF00223036000207047E3
S315000019B0012070472DE9F041068896B340684FF044
S315000019C0000800EBC60644460127B0F804E0164AB4
S315000019D0002332F8021B8E450BD1056807FA03F186
S315000019E005F0B85CC9B2BCF1807F0CBF0C4348EA75
S315000019F001080133032BECD108308642E5D16FEAAA
S31500001A000805EDB2012004F07BF8084A92F8BB34D1
S31500001A1023431D4082F8BB54BDE8F041012004F089
S31500001A203FB8FF253446EDE7708E000000E0014028
S31500001A30012915D8304B1B68B3EB102F4FEA102243
S31500001A400ED970B42D4B1B68C0B253F8224000F17A
S31500001A5010050123AB40234204D1032070BC70471C
S31500001A6003207047264C274B24681D6800EB0210A4
S31500001A7054F8203000293BD043F00401224E0E409A
S31500001A80EFF3108C012383F31088204A13889BB24E
S31500001A9013B9EB704023EB70138801339BB21380AC
S31500001AA08CF3108811F4803F54F8203007D023F4CB
S31500001AB0803344F82030164B0B4044F8203044F86D
S31500001AC02060EFF31081012383F3108813889BB203
S31500001AD01BB11388013B9BB2138013889BB213B9C9
S31500001AE08022EB70EA7081F31088002070BC70478A
S31500001AF023F00401C2E700BFB002FE1FB402FE1FBE
S31500001B00BC02FE1FB802FE1FD5FC011F1003FE1FFC
S31500001B10D5FC001F30B583B00023044601A88DF81C
S31500001B2004300D4603F078FD9DF80430DB0711D52F
S31500001B30202C0CD8012D0AD80B4B1B681A780CD018
S31500001B40144304F030041C70002003B030BD0320A1
S31500001B5003B030BD062003B030BD22EA040202F015
S31500001B6030021A700020F0E7B802FE1F002864D089
S31500001B702DE9F84F43680646002B5BD0FFF71AFFA6
S31500001B803388002B53D0DFF8BC90DFF8BC802C4A9A
S31500001B904FF0000C4FF0010E4FF0400B4FF0800A53
S31500001BA07368D9F8000053F83C50D8F8004003EBAE
S31500001BB0CC018B88190ADBB203EB0113EFF3108714
S31500001BC08EF31088118889B211B9C17080F803B0FC
S31500001BD01188013189B2118087F3108815F4803F8E
S31500001BE054F8231025F4803705D021F4803144F8C9
S31500001BF0231044F8237044F82350EFF310818EF33A
S31500001C00108813889BB21BB11388013B9BB21380CB
S31500001C1013889BB213B9C37080F803A081F31088B0
S31500001C2031880CF1010C1FFA8CF39942B8D80020C8
S31500001C30BDE8F88F0120BDE8F88F0120704700BF8E
S31500001C401003FE1FB802FE1FBC02FE1F002832D082
S31500001C5030B5436887B00446002B2ED018490023C0
S31500001C600922CD680192CDE90233CDE9043302A9F8
S31500001C7001A8A8471349144A144B0A208DF80400FA
S31500001C80029808600599116001A8BDF80C201A6039
S31500001C9002A9A8470E4B012202A98DF8052001A82A
S31500001CA0029A1A60A8470B4B029A1A602046FFF761
S31500001CB05DFF07B030BD01207047012007B030BD81
S31500001CC088950000C002FE1FB402FE1FB002FE1F70
S31500001CD0BC02FE1FB802FE1F154B1B68B3EB102F8C
S31500001CE020D910B4134B4FEA102C1B68C0B253F81E
S31500001CF02C4000F11002012303FA02F2224203D122
S31500001D0003205DF8044B704771B10B4A5DF8044B34
S31500001D10126800EB0C13002052F82330C3F3400383
S31500001D200B7070470320704718465DF8044B7047E8
S31500001D30B002FE1FB402FE1FBC02FE1F194B1B6839
S31500001D40B3EB102F27D910B4174B020A1B68C0B289
S31500001D5053F8224000F1100C012303FA0CFC1CEA94
S31500001D60040F03D103205DF8044B7047A9B10F4C53
S31500001D702468520104F1040C03FA00F05CF80240F6
S31500001D8082B200EA1440824218BF002300205DF8A8
S31500001D90044B0B7070470320704718465DF8044BE0
S31500001DA0704700BFB002FE1FB402FE1FC002FE1F36
S31500001DB0194B1A68B2EB102F2BD910B4174A030A25
S31500001DC01268C0B252F8234000F1100C012202FA48
S31500001DD00CFC1CEA040F03D103205DF8044B70478A
S31500001DE09142F9D80E4C02FA00F122684FEA4313E9
S31500001DF002F1080213444FF000005A680BBF0A4371
S31500001E0042EA014292B26FF30F025A605DF8044B48
S31500001E1070470320704700BFB002FE1FB402FE1FCA
S31500001E20C002FE1F012918D8134B1B68B3EB102FF5
S31500001E304FEA102211D910B4104B1B68C0B253F8E8
S31500001E40224000F1100C012303FA0CFC1CEA040FDB
S31500001E5005D103205DF8044B70470320704783408B
S31500001E609BB201B91B0406490968520108310020DA
S31500001E708B505DF8044B7047B002FE1FB402FE1F84
S31500001E80C002FE1F2F4B1B68B3EB102F58D9F0B5BD
S31500001E902D4B050A1B68C6B253F8253006F1100211
S31500001EA0012707FA02F21A4285B002D1032005B0D3
S31500001EB0F0BD02ABADF80C0068460C4602910193EA
S31500001EC0ADF80070FFF776FD2049214A06EB0513B1
S31500001ED00D681168EFF3108687F310881D48028895
S31500001EE092B212B9EA704022EA700288013292B2C6
S31500001EF0028086F31088E60351F8232007D522F4E2
S31500001F00803241F8232024F4803241F8232041F81E
S31500001F102340EFF31082012383F3108803889BB2DA
S31500001F201BB10388013B9BB2038003889BB213B9A4
S31500001F308021EB70E97082F31088002005B0F0BDB7
S31500001F4003207047B002FE1FB402FE1FB802FE1F38
S31500001F50BC02FE1F1003FE1F68B183685BB1074A0F
S31500001F60C168914205D1DA6A22F001020020DA62E4
S31500001F707047072070470120704700BF5450470044
S31500001F8068B183685BB1074AC168914205D1DA6AD4
S31500001F9042F001020020DA627047072070470120F4
S31500001FA0704700BF5450470020B14FF00223036032
S31500001FB00020704701207047002835D030B583686F
S31500001FC083B00446002B31D0214AC168914228D102
S31500001FD0DA6A22F00102DA6290F91420002A28DA7D
S31500001FE0DA8E22F48072DA869A8E22F480729A86CB
S31500001FF0237CADF806302B2101A8ADF8041003F0C0
S3150000200003FD94F91420002312F1210F637404D008
S315000020101049096851F8322013600020E06003B0CF
S3150000202030BD072003B030BD01207047012003B04A
S3150000203030BD5109084D2031012002F01F0200FA7F
S3150000204002F245F82120BFF34F8FBFF36F8FC7E72A
S31500002050545047006890000000E100E050B149B1DB
S3150000206083683BB1054AC068904205D19B6C0B6002
S3150000207000207047012070470720704754504700E2
S3150000208040B3836833B3144BC2689A4220D110B46C
S31500002090EFF3108C012282F310888368DC6AD96A18
S315000020A021F00101D962017C8A40996941F0004121
S315000020B09961DA609A6922F000429A61DA6A64F3F9
S315000020C00002DA628CF3108800205DF8044B70473A
S315000020D0072070470120704754504700012A70B509
S315000020E005461C4633D0022A12D072BB8C461646D1
S315000020F0012D19D0B24208BFA4454FF0FF3303D0DB
S31500002100002A08BF9C451AD1049A1360002070BDAE
S31500002110264AA3FB0101002305F036FA012D4FF0F4
S3150000212000060A468446E5D1631E46F1FF31B3EB4D
S315000021300C0C61EB0202964208BF644532D064453E
S3150000214076EB020201D36346DEE7032070BDA3FBF4
S3150000215001100A0D42EA0032C1F31303C2F313025F
S315000021601344C0F313221344114A03EB1073A2FB6A
S3150000217003C2D20802EB820202EB82029B1A0D4ACC
S31500002180C91A0D4B01FB02F260F1000003FB0022AD
S31500002190A1FB03131A444FEA910C4CEA827C0026F9
S315000021A09208A5E74FF0FF33AEE700BFA086010017
S315000021B01F85EB51F5285C8F295C8FC200283DD026
S315000021C02DE9F0410E4682B0002933D085680446D9
S315000021D0002D2FD01A4BC2689A4203D0072002B0B6
S315000021E0BDE8F0816B6E01338B6083684FF00008A9
S315000021F0CDF80480DF6A134B01A99B690320984739
S31500002200C7F30267019B7F00FB4073602B6BC3F330
S3150000221000033370EB6A03F0010383F001033373A9
S31500002220237C03EB83035B004046B633F38102B0A5
S31500002230BDE8F081012002B0BDE8F08101207047C1
S3150000224054504700248F000031B982B9036B022233
S3150000225062F31143036370474B1C10D0AAB1012AE5
S3150000226003D1036B23F04073036381657047012A32
S31500002270FCD1036B022262F319630363704752B900
S31500002280036B43F4403303637047036B62F31143FC
S31500002290036341657047012AE8D1036B43F040733D
S315000022A00363704770B502F0010C164602F0030591
S315000022B084680A46002936D1E18E6CF30411E18662
S315000022C0E18E65F38711E186E18E012B41F00C0169
S315000022D0E18604F1360552D043B92A8863F3010238
S315000022E02A802B8843F480732B8070BD837D002B5E
S315000022F061D02B88022161F301032B802B880121F9
S3150000230061F383032B80236C0121002A61D161F3E1
S315000023101143236480680499FFF796FF2B8843F4E2
S3150000232080732B8070BDA18E6CF30411A186A18EE3
S3150000233065F38711A186A18E012B41F00C01A186C0
S3150000234004F13405C8D100222265226C63F393425E
S315000023502264437D012B40D04FF0FF33A3652B88C9
S31500002360DEB9022262F301032B802B88012262F37D
S3150000237083032B802B8843F480732B8070BDE2642B
S31500002380226C63F311422264437D012B29D04FF066
S31500002390FF3363652B88002EE3D0012262F301032D
S315000023A02B802B88022262F383032B802B8843F435
S315000023B080732B8070BD2B88012161F301032B8074
S315000023C02B88022161F383032B80236C0121002AD1
S315000023D09DD061F3934323649CE74FF6FF73A36597
S315000023E0BDE74FF6FF736365B9E700BF70B584B00C
S315000023F0B0B18668A6B1012B1D4619D8124BC46828
S315000024009C4211D1736E807D03AC0094013300248D
S315000024100394FFF763FE044670B1204604B070BD16
S315000024200124204604B070BD0724204604B070BDC8
S315000024300324204604B070BD304603992A46FFF7B0
S3150000244003FF204604B070BD54504700FFFFFFFF56
S315000024502DE9F043984683B0434B00250E4681464E
S315000024600C469B690195174601A903209847062F3C
S3150000247026D8DFE807F0290436404B4F6400019860
S3150000248037A3D3E90023A6FB000105F07DF8044637
S315000024900D4699F81530012B48D04FF0FF31002337
S315000024A0B5B10022A40844EA8574A1424FEA950515
S315000024B002F1010273EB0500D2B20AD2052AF1D16C
S315000024C0032003B0BDE8F08399F81530012B2DD019
S315000024D000220A9B00201A70C8F8004003B0BDE82D
S315000024E0F0830198214AA6FB0001002305F04CF871
S315000024F004460D46CDE701984FF47A72A6FB00011B
S31500002500002305F041F804460D46C2E7019CA6FBF0
S315000025100445BEE7002319460198324605F034F813
S3150000252099F81530012B04460D46D1D1B4F5803FFC
S3150000253075F10003CCD34FF6FF710023B1E70023FA
S315000025404FF47A721946019806FB02F205F01CF860
S3150000255099F81530012B04460D46B9D1E6E700BFC0
S3150000256000CA9A3B00000000248F000040420F0082
S31500002570002830D030B5856885B00446002D2CD0B3
S3150000258000292DD0184BC5689D4202D0072005B002
S3150000259030BD002303938DF80B300DF10B03009330
S315000025A003ABFFF755FF0028F1D1A368D96ADA6AB1
S315000025B060F30002DA62DA6A9DF80B4064F31A628D
S315000025C0DA62039A013A5A669864DA6A61F300029B
S315000025D0DA6205B030BD01207047012005B030BD7C
S315000025E0032005B030BD00BF545047002DE9F0432D
S315000025F08BB0002900F009810546002800F005810E
S315000026000023CDE90633CDE908338DF80B3003936B
S315000026109B4F4B7CADF812302B23ADF810300E4695
S31500002620FB6806A904A898470446002840F0E980FC
S31500002630069A3B690590AA60062105AA04A8BDF87A
S315000026401E809847BDF81E3083F00403C3F3800351
S315000026506B759DF814302B750DF10B030093327AD0
S31500002660716803AB2846FFF7F3FE0446002840F0E6
S31500002670C8807369002B00F0CD8095F914202132B3
S3150000268000F0FB802B60B3696B60737C2B7433782E
S31500002690A3F10103B3FA83F35B096B74F369197849
S315000026A0A9749978E9741879A87533780022022BF1
S315000026B0069200F0B48004A803F074F904460028DA
S315000026C040F0B980AF6804A803F0D2F8FA6A64F360
S315000026D00002FA624FF0FF334FF425410122B8F1B0
S315000026E00F0F39603C617C617C61FC613C627C62FD
S315000026F0BC62FC623A637C63BC63FC633C64BC649E
S31500002700FB643B657B65BB657B66BB66C7F888403B
S31500002710C7F88C3011D97C64FB663B67FB677B6727
S31500002720C7F88030BB67C7F88430C7F89030C7F861
S315000027309430C7F89830C7F8A040AF689DF80B10E2
S31500002740FA6ADDF81880039B22F4E022FA623A6BFB
S3150000275042F002023A633A6B42F001023A633A6B84
S3150000276022F002023A63FA6A013B61F31A6200211F
S31500002770FA627B66B964D6F81C90B9F1000F07D0EF
S3150000278099F80030002B65D199F80230002B6AD1F8
S315000027907369002B54D095F91420B37C39491B0179
S315000027A0002A0868DBB24FDB02F1604101F56141A6
S315000027B081F8003350F832301D6095F9140003F0AB
S315000027C0C5F895F91430002B13DB59092E4803F090
S315000027D01F036031012202FA03F340F8213095F914
S315000027E01430002B05DB590903F01F039A4040F80B
S315000027F02120F37C1BB1FB6A43F00103FB62234BF0
S31500002800EB6020460BB0BDE8F083012420460BB0F8
S31500002810BDE8F0833278012A7FF437AF2DE706ABA7
S315000028200093327C039BF168FFF758FC04460028AE
S315000028303FF441AFE5E7082420460BB0BDE8F0833E
S315000028403378012BD5D1A6E7114902F00F0C61446C
S315000028500B76AFE799F80120CDF80080337828464B
S31500002860FFF720FD90E799F80320CDF80080337834
S3150000287001212846FFF716FD8AE70B24C1E700BFB2
S31500002880889500006890000000E100E05450470081
S31500002890FCEC00E010B582B0EFF3058004F052F8CE
S315000028A0EFF30383194A103B12685BB252F83330D8
S315000028B01C68EFF30380103840B203F047F8ECB120
S315000028C0637C8BB1A368DA6A002122F00102DA6226
S315000028D09964A27C02B1D964E27C0AB100221A652D
S315000028E0DA6B22F04002DA6323683BB16268009239
S315000028F000238DF80430236868469847EFF3058077
S3150000290002B0BDE8104004F01BB800BF689000009C
S3150000291068B1012809D10A4B1B68002040214122D9
S315000029201871197100201A71704701207047044B05
S315000029301B68402141229870997000209A70704758
S315000029401403FE1F034B04301B6823F820100020DD
S31500002950704700BF1403FE1F034B1A68031D0020B7
S3150000296022F82300704700BF1403FE1F034B1A68AA
S31500002970137843F080030020137070471403FE1F82
S31500002980034B1A68137823F08003002013707047F6
S315000029901403FE1F20B14FF002230360002070478E
S315000029A00120704770B586B0002833D01B4A00233B
S315000029B00B21CDE90113CDE90333D2680593044613
S315000029C002A901A89047054610B1284606B070BD79
S315000029D0134E029B336001A802F04AFF636873B18D
S315000029E030682B46A26812F8231002EB83020431EA
S315000029F0528820F82120626801339A42F2D823785F
S31500002A00002BE2D032681378284643F08003137017
S31500002A1006B070BD0125284606B070BD8895000039
S31500002A201403FE1F062070470620704790B10A4B1C
S31500002A3002689A420CD190F90630084AC0331168F0
S31500002A4051F8232022F0807241F82320002070479D
S31500002A500720704701207047004354441803FE1FA7
S31500002A6020B14FF002230360002070470120704719
S31500002A70002830D0234B02689A422ED159B310B4A5
S31500002A80214B1B68DB8900228A7113F4004F9AB22E
S31500002A9090F906302AD11D4C54F82320D37803F040
S31500002AA0C003802B2AD0D3899BB28B80D27802F0C8
S31500002AB0C002402A04BFDBB28B8090F9063054F87E
S31500002AC02330DB783F2B0AD84FF4803300205DF8A3
S31500002AD0044B0B60704701207047072070474FF486
S31500002AE0807300205DF8044B0B60704752B293422E
S31500002AF0D1D101238B7190F90630CCE793898B8075
S31500002B00DBE700BF004354441C03FE1F0000FE1F0A
S31500002B1010B3124A01689142034619D190F9062072
S31500002B2012F1210F16D010B40D490E4C0868C032B0
S31500002B3050F8221021F0807140F8221093F9061007
S31500002B40002244F821201A6010465DF8044B7047B5
S31500002B50072070470B2070470120704700435444FC
S31500002B601803FE1F0000FE1F90F9063013F1210F17
S31500002B702FD0194A52F823209168F9B15168E9B16A
S31500002B80D17801F0300110291AD0202910D0134A2B
S31500002B90C033126852F8231021F4803142F8231012
S31500002BA052F8231041F0807142F82310002070473C
S31500002BB09168890702D152689207E8D001207047D0
S31500002BC0906810F00100FAD1506810F00100DED0D4
S31500002BD070470B20704700BF0000FE1F1803FE1F42
S31500002BE038B1054A0368934201D1FFF7BDBF0720FC
S31500002BF070470120704700BF0043544406207047C9
S31500002C00F0B583B001910092002850D090F90620CB
S31500002C10304951F82250EC783F2C3BD82E4C0568B1
S31500002C20A54247D12D4CC03226682D4C256856F852
S31500002C30224024F0807446F822402A7822F01002BE
S31500002C402A70019A2AB190F90620019C51F8222097
S31500002C505460009A2AB190F90620009C51F822206F
S31500002C60946090F9062051F82220D17801F0C00432
S31500002C70802C22D03F2998BFD3810268164B9A42F6
S31500002C8020D1FFF771FF2B7843F010032B70E8B9C2
S31500002C9003B0F0BDD3B1104E0768B7420AD104F0B5
S31500002CA0C004802CBED1EC89A4B2002CBAD101207C
S31500002CB003B0F0BD072003B0F0BD93810268064B58
S31500002CC09A42DED02B7843F010032B70132003B00A
S31500002CD0F0BD00BF0000FE1F004354441803FE1F52
S31500002CE01C03FE1FF0B583B001919DF820E0BDF8EE
S31500002CF024600092002858D090F90610324A52F803
S31500002D00214094F803C00CF0C00CBCF1800F4FD1E9
S31500002D10002E4AD0002B48D02C4C0568A5424AD13B
S31500002D202B4CC03127682B4C57F82150246825F0CE
S31500002D30807547F82150217821F010012170019902
S31500002D4029B190F90610019D52F821104D600099A5
S31500002D5029B190F90610009D52F821108D6090F966
S31500002D6006101A4D52F821108E8190F9061052F86D
S31500002D702110CB8190F9063052F82330D9786EF3C2
S31500002D800511D97090F9063052F823309A7BDA7320
S31500002D900368AB4211D1FFF7E7FE237843F0100337
S31500002DA0237018B1132003B0F0BD012003B0F0BDAD
S31500002DB0062003B0F0BD0720F8E7237843F01003A0
S31500002DC023701320EFE700BF0000FE1F00435444AA
S31500002DD01803FE1F1C03FE1F002875D02DE9F043C3
S31500002DE00D4687B000294DD00B68002B4AD0DA7803
S31500002DF03F2A064641D84E4B32689A4246D04D4F3E
S31500002E003B78002B46D04C4B1C68B5F804E00023F9
S31500002E1002E00133702B59D003F1C00C54F82C207A
S31500002E20C2F308029645F4D154F82C204348C2F365
S31500002E300802B28050F8232042BB2A68D1783F2985
S31500002E4084BF917BD17391783F2902F11002F5D8A6
S31500002E503B4A37491468227822F0100222702A6809
S31500002E6040F82320B3713160AB79002B35D123783C
S31500002E7043F010032370002005E0DB899BB2B3F515
S31500002E80807FB8D9012007B0BDE8F083082007B0DD
S31500002E90BDE8F0830822CDE90123CDE9033305938C
S31500002EA0284B0DEB0201DC6801A8A0470028EAD1F7
S31500002EB0DFF88C90029BC9F8003001A802F072FD81
S31500002EC08046A8B10A20DEE701207047D4F87C329C
S31500002ED0C3F308030B20B380D5E73046FFF744FE63
S31500002EE0237843F0100323700028C4D01320CAE7C8
S31500002EF001A802F0BDFC4146DFF840804FF4E072C5
S31500002F00404604F0ECFDD9F80030C3F804801A7B83
S31500002F1042F001021A7306238DF8043002A901A8B3
S31500002F20A047054A029C146001233B706DE700BF71
S31500002F30004354442003FE1F1803FE1F0000FE1F1B
S31500002F401C03FE1F88950000062070470620704768
S31500002F5020B14FF002230360002070470120704724
S31500002F60324B1B6893F8282002F03003102B28D030
S31500002F70202B53D190F82B302D4A9B0932F8133071
S31500002F80002B4FD007EE903A2A4A90F82B30F8EEF5
S31500002F90676AD2ED037AB8EE676A03F01F03C6EEDE
S31500002FA0267A07EE103AB8EE477AF7EE006A37EE61
S31500002FB0267A67EE877AFCEEE77A17EE903A536147
S31500002FC07047038D1C4903F0030331F8133023B314
S31500002FD0520628D5028D12F0100F14BF00210321CE
S31500002FE0144A07EE903A02EB8103D3ED006A038D93
S31500002FF0B8EE677AF8EE666AC3F30523C6EE877AFB
S31500003000013307EE103ABAEEEF7A67EE877AFCEEF6
S31500003010E77A17EE903A536170477047054A0023E6
S315000030205361704770470321DAE700BFE002FE1FD5
S31500003030988F0000C402FE1FA88F000081B30628E7
S3150000304030D0052813D0042834D003283DD8204B8F
S3150000305000220A601A680228136A1ED0032831D09B
S31500003060012814BFC3F30233C3F3022306E0184A50
S31500003070002312680B60136AC3F3027310B492F84C
S315000030802620144C02F00702002054F822205DF896
S31500003090044B22FA03F30B607047C3F30213EDE708
S315000030A0012070470A4A002312680B60136AC3F3B3
S315000030B00263E3E7064A002312680B60136AC3F350
S315000030C00243DBE703F00703D8E70320704700BF9E
S315000030D0DC02FE1FC402FE1F38B5084B1D680446FD
S315000030E0002002F00DFD95F8303064F30003002057
S315000030F085F8303002F0D4FC002038BDDC02FE1F1B
S3150000310010B5084B1C68002002F0FAFC94F8523007
S3150000311043F00103002084F8523002F0C1FC002085
S3150000312010BD00BFDC02FE1F10B5084B1C68002056
S3150000313002F0E6FC94F8523023F00103002084F8F4
S31500003140523002F0ADFC002010BD00BFDC02FE1FB5
S3150000315010B5084B1C68002002F0D2FC94F83E30F3
S3150000316043F08003002084F83E3002F099FC0020F2
S3150000317010BD00BFDC02FE1F10B5084B1C68002006
S3150000318002F0BEFC94F83E3023F08003002084F861
S315000031903E3002F085FC002010BD00BFDC02FE1FA1
S315000031A010B5084B1C68002002F0AAFC94F85330B6
S315000031B043F00103002084F8533002F071FC002034
S315000031C010BD00BFDC02FE1F10B5084B1C680020B6
S315000031D002F096FC94F8533023F00103002084F8A3
S315000031E0533002F05DFC002010BD00BFDC02FE1F64
S315000031F038B5084B1D680446002002F081FC95F89E
S31500003200243064F30613002085F8243002F048FCCD
S31500003210002038BDDC02FE1F052827D070B5144BF0
S3150000322004281D6804460E4606D195F88034DB074F
S3150000323002D54FF4C87070BD002002F061FC95F80D
S315000032403E3023F0800385F83E3095F83E3066F335
S31500003250061385F83E3095F83E3064F302030020ED
S3150000326085F83E3002F01CFC002070BD032070473C
S31500003270DC02FE1F10B582B00446002001900198C2
S315000032809DF810C061F30E30019001999DF814006D
S3150000329002F0070262F30A210191019963F3061114
S315000032A00191019B13496CF302030193019B096889
S315000032B060F312430193019B9DF8180060F31E739F
S315000032C00193019B9DF81C0091F82A1060F31A6384
S315000032D001934B0703D5019B62F312430193002030
S315000032E002F00EFC019B2362002002B0BDE81040F4
S315000032F002F0D6BBE002FE1F10B5174B1C6894F80F
S315000033004130D80705D494F84130DB0716D40020A5
S3150000331010BD124A94F82630126892F828205106F9
S3150000332003F0070306D4052B01D0032BEBD140F2A3
S31500003330971010BD228DD206F7D4F4E7002002F0D4
S31500003340DFFB94F8413023F00103002084F841307C
S3150000335002F0A6FBDBE700BFDC02FE1FE002FE1F59
S3150000336030B583B002F098F84FF0E02301901C6965
S315000033701A69920702D4002003B030BD07EE900A06
S31500003380F8EE677AF7EE006A86EEA77A124800250D
S315000033901D6190F82320D1B2DFED107ADFED106ABF
S315000033A027EE277AC6EE877AFCEEE77A17EE902AA2
S315000033B0013AB2F1807F0BD25A61F02280F82320C5
S315000033C001F0F00107229D611A6180F82310D2E70F
S315000033D012201C6103B030BD00ED00E000247449EA
S315000033E000401C4608B1FFF7BBBF0320704700BF73
S315000033F00620704706207047062070470620704753
S31500003400024630B329B3144B1B6893F826C0CCF39D
S31500003410020C82F800C01A6AC2F302320A701A6AF3
S31500003420C2F302224A701A6AC2F302128A701A6A38
S31500003430C2F30202CA701A6AC2F302420A711A6A17
S31500003440C2F302724A711B6AC3F3026300208B71D6
S3150000345070470120704700BFDC02FE1F2DE9F843CC
S3150000346000295BD0002873D03D4C236893F8AA202E
S3150000347012F001026CD13B4D93F8A0202E68196A18
S315000034801D6A1F6AC7F3021C1F6A07F0070E1F6A30
S31500003490D3F820901B6AC3F30268B36802F00302F4
S315000034A0C1F30231C5F30225C7F30247C9F3027916
S315000034B053B3032A28D133698B422DD8AB422BD87C
S315000034C0634529D8734527D84B4525D8BB4223D811
S315000034D0434521D80146012002F0B4F824680020B3
S315000034E002F00EFB94F8403043F0800384F840303D
S315000034F094F8403043F00103002084F8403002F095
S31500003500CFFA0020BDE8F883F368002BE2D0022A48
S31500003510E0D173698B42D1D90520F3E7104B1D68C2
S3150000352095F84130DB0716D408460C4602F0E8FA57
S3150000353095F8403064F3000385F8403095F8403044
S3150000354064F3C713204685F8403002F0A9FAD8E79D
S315000035500120BDE8F8834FF4CB70BDE8F88300BFC7
S31500003560DC02FE1FE002FE1F2DE9F0414648474DF2
S3150000357088B002F059F8464A00230321CDE9053305
S31500003580049301910793D26804A901A89047049C6B
S315000035902C604FF6FF73029394F83630DE075AD547
S315000035A0002002F0ADFA94F8A530374E062262F3F9
S315000035B0020384F8A530002002F072FA354B326817
S315000035C0D5F800804FF40041002499601961916993
S315000035D0D269DA602046304A5C614FF6FF7719609F
S315000035E05A60029702F08CFA98F8803443F001038F
S315000035F0204688F8803402F053FA2C68039794F832
S315000036008034D80715D5039B03B33368226A93F831
S31500003610225094F82630002002F072FA94F8803492
S31500003620DB0729D4002002F03BFA002008B0BDE8F1
S31500003630F081039B002BE6D0039B013B039394F898
S315000036408034DA07F5D5039B002BDED14FF4CD701D
S3150000365008B0BDE8F08194F83C30D90708D4029B45
S3150000366033B1029B013B029394F83C30D907F6D55F
S31500003670029B002B94D1E9E794F8813423EA0503F1
S3150000368084F88134CEE700BFE002FE1FDC02FE1F95
S3150000369088950000C402FE1F00127A0005292ED864
S315000036A0DFE801F00A11181F260390F82A0000F03F
S315000036B0010080F00100704790F8360000F001002C
S315000036C080F00100704790F8380000F0010080F0AB
S315000036D00100704790F8900400F0010080F00100AE
S315000036E0704790F8320000F0010080F0010070474A
S315000036F090F8800400F0010080F00100704700207F
S31500003700704700BF052845D870B5534E356895F803
S31500003710263003F00703984282B0044622D0052BD8
S3150000372012D095F82A30DB070ED5012C1ED195F85C
S315000037304030DB094ED121462846FFF7AFFF00286F
S315000037404BD1002002B070BD444B1B6893F8283063
S31500003750580621D52B8D13F0100F14BF0023032319
S315000037609C42E2D140F2911002B070BD214628463B
S31500003770FFF794FF0028E4D0032C1DD0052C0DD0B4
S31500003780002C56D195F83C30D90748D440F2931016
S3150000379002B070BD032070470323E1E795F83C3083
S315000037A09B06F3D5002002F0ABF995F82A3043F0DA
S315000037B0010385F82A3019E095F83C301A07E5D55B
S315000037C0002002F09DF995F8323043F0010385F8A8
S315000037D032300BE040F29510B4E7002002F090F989
S315000037E095F8383043F0010385F83830002002F0B0
S315000037F057F94FF6FF733268019304E0019B43B11A
S31500003800019B013B019321461046FFF747FF002825
S31500003810F4D1019B002B94D14FF4CD7092E7204652
S3150000382002F06EF995F8363043F0010385F836302C
S31500003830DCE7002002F064F9042C06D095F89034F9
S3150000384043F0010385F89034D0E795F8803443F0CF
S31500003850010385F88034C9E7DC02FE1FE002FE1F83
S31500003860052814D808B5174A431E1268012B0146CD
S31500003870104607D9042905D0FFF710FF48B94FF4C1
S31500003880C87008BDFFF70AFF00F5C87008BD032021
S315000038907047032992F83C0007D005290BD000F0A9
S315000038A00100C0F5C970013008BDC0F3C000C0F505
S315000038B0C970013008BDC0F34010C0F5C9700130B1
S315000038C008BD00BFDC02FE1F052801D90320704792
S315000038D02DE9F041461EDFF89480F6B2012ED8F8A5
S315000038E0005004464FF6FE7240F2931725D9042C79
S315000038F0214628460DD195F8803403F00103C3F51F
S31500003900C873013340F29112934222D10020BDE8E0
S31500003910F081FFF7C3FEE0B1032C95F83C0020D000
S31500003920052C1AD000F00100381AB842EED1013A3F
S31500003930EDD0012ED8F80050D9D8022C14BF95F836
S31500003940383095F8903403F00103C3F5C87301339A
S31500003950D8E74FF4C870BDE8F081C0F34010381ABC
S31500003960E3E7C0F3C000381ADFE700BFDC02FE1F42
S3150000397030B583B04FF6FF730446012001930D4620
S3150000398002F0BEF800230DF103008DF8033001F0BC
S3150000399003FD94F8AA30D80605D494F8A030D906C9
S315000039A0C3F300120AD5019B013B0193019B002B37
S315000039B0EFD1012002F074F803B030BD94F8AA30BC
S315000039C04FF6FF7162F3000384F8AA30019102E01A
S315000039D0019B013B019394F8AA30DA0603D494F8CC
S315000039E0A030DB0602D5019B002BF1D194F8A03064
S315000039F0042D0CBF43F0030365F3010384F8A030E4
S31500003A004FF6FF73019302E0019B013B019394F88B
S31500003A10AA30D80603D494F8A030D90602D5019B63
S31500003A20002BF1D194F8AA30042D0CBF43F001030A
S31500003A3023F0010384F8AA304FF6FF73019302E0E6
S31500003A40019B013B019394F8AA30DA0603D494F85B
S31500003A50A030DB0602D5019B002BF1D19DF80300B7
S31500003A6001F0AEFC012002F01BF803B030BD00BF30
S31500003A70042810D002280ED0114B1B689B688B427D
S31500003A8008D3104B186890F82A30DB0702D50321BB
S31500003A90FFF76EBF70470B4B186890F82A30DB07AC
S31500003AA0EAD590F83230DA07E6D590F83630DB07FB
S31500003AB0E2D590F83830DA07DED50421FFF758BF93
S31500003AC0E002FE1FDC02FE1F2DE9F04F052889B03B
S31500003AD030D80C46002900F0B5800B788A799342DD
S31500003AE028D34978994225D3E178994222D8637937
S31500003AF093421FD3217991421CD3042806461ED037
S31500003B00684F3A6892F8263003F0070398422CD0A3
S31500003B102923C340DD0722D5032800F0BB800528F2
S31500003B2000F0B28008BB92F83C30D8071DD440F2B2
S31500003B30931500E00325284609B0BDE8F08F13432E
S31500003B4040F0AE80574F3A6892F84030DB0940F0BB
S31500003B50A78092F8263003F00703042B05D03146E0
S31500003B601046FFF79BFD002871D0136A136A136A8B
S31500003B70136A136A136A136ADFF83081104600214C
S31500003B80C3F30269FFF7F4FE00238DF810308DF8B9
S31500003B901C30A27958F82630D34005933B681A6A40
S31500003BA093F8263003F00703C2F3026258F8233075
S31500003BB004A8D340069301F07FFC05460028BAD13D
S31500003BC0A379D7F800A0994506F0070B42D20393D4
S31500003BD06379029323790193E3780093A37862785B
S31500003BE021785046FFF746FB3C68284601F088FFDF
S31500003BF094F826306BF30203284684F8263001F049
S31500003C004FFF3B681A6A93F8263003F00703C2F3A6
S31500003C10026258F823300121D34004A806938DF898
S31500003C20101001F049FC0546002884D101F034FC4F
S31500003C301D4B0146186050B13046FFF719FFFFF7DC
S31500003C408FFB78E70125284609B0BDE8F08F4FF4D1
S31500003C50C87570E701F054FF9AF826306BF302033B
S31500003C6028468AF8263001F01BFFA379039363796F
S31500003C70029323790193E3780093A37862782178FD
S31500003C803868FFF7F7FABCE792F83C309B063FF539
S31500003C906CAF4CE792F83C3019073FF566AF46E744
S31500003CA0052548E7DC02FE1F7803FE1FC402FE1F3F
S31500003CB02DE9F047AF4F2DED028B3D6882B00446EB
S31500003CC00E4601462846FFF7E9FC002840F0A18190
S31500003CD0052C00F28281DFE814F079007001800182
S31500003CE0010151010600002E00F0AD81DFF8888247
S31500003CF07278D8F8003093F824109142C0F087818A
S31500003D0093F8262096ED017A07EE902AF8EE677A68
S31500003D10F4EEC77AF1EE10FA00F1798193F82530C6
S31500003D2007EE903AF8EE677AB4EEE77AF1EE10FA1B
S31500003D3000F16D8196F80090B9F1030F03D0B9F147
S31500003D40000F40F0648149462846FFF7A7FC00288B
S31500003D5000F08A8195F83C309A0600F1648195F866
S31500003D60AA30DB0700F1838195F8A030002001F02E
S31500003D70C7FE2B8DB9F1030F0CBF23F0100343F0E0
S31500003D8010032B85002001F08BFED8F800303D682B
S31500003D9093F8283096F8019003F03003102B00F0CA
S31500003DA09D81202B00F06B812846FFF7D9F83868F3
S31500003DB00021FFF7DDFD00203D6801F0A1FE95F82A
S31500003DC02A3023F0010385F82A3015E095F83C30B7
S31500003DD013F0010640F0278195F8AA30DB0700F1C1
S31500003DE03A81304695F8A03001F08AFE95F83630D3
S31500003DF023F0010385F83630002001F051FE4FF61E
S31500003E00FF723B680192052C00F29B81DFE804F00B
S31500003E10035748392A1B93F83620D70708D5019A45
S31500003E2032B1019A013A019293F83620D707F6D4B7
S31500003E30019B002B0CBF4FF4CD70002002B0BDECEF
S31500003E40028BBDE8F08793F82A20D207F0D5019AB5
S31500003E50002AEDD0019A013A019293F82A20D2075E
S31500003E60E6D5F4E793F88024D107E1D5019A002A34
S31500003E70DED0019A013A019293F88024D107D7D572
S31500003E80F4E793F83220D407D2D5019A002ACFD08E
S31500003E90019A013A019293F83220D407C8D5F4E783
S31500003EA093F89024D507C3D5019A002AC0D0019A69
S31500003EB0013A019293F89024D507B9D5F4E793F81F
S31500003EC03820D607B4D5019A002AB1D0019A013A12
S31500003ED0019293F83820D607AAD5F4E795F83C3036
S31500003EE0180700F1A08095F8AA30D90700F1AD8037
S31500003EF095F8A030204B1B68002093F8276093F8B4
S31500003F00208093F8219001F0FBFD95F8133406FA12
S31500003F1009F25BB25A4002EA08025340DBB285F866
S31500003F201334002001F0BCFD3D68002001F0E8FDDF
S31500003F3095F8133423F0400385F81334002001F07C
S31500003F40AFFD3D68002001F0DBFD95F8A2300522AB
S31500003F5062F30303002085F8A23001F0A1FD0020E2
S31500003F603D6801F0CDFD95F8323023F0010385F868
S31500003F70323041E7DC02FE1FE002FE1F754B1B6874
S31500003F80002093F8226001F0BBFD95F88034D90734
S31500003F9005D595F8813423EA060385F88134002097
S31500003FA001F07EFD00203D6801F0AAFD95F8803401
S31500003FB023F0010385F880341EE795F8AA30DA0766
S31500003FC038D4002095F8A03001F09AFD95F83830E5
S31500003FD023F0010385F838300EE7002001F090FD4C
S31500003FE0A31E032B3FF608AF01A252F823F000BF31
S31500003FF001400000673F0000AD3F0000BF3D0000EC
S3150000400095F8903423F0010385F89034F4E6032004
S3150000401014E72846FEF7A4FF40F2911002B0BDEC6B
S31500004020028BBDE8F08740F2931002B0BDEC028B24
S31500004030BDE8F08728460321FFF79AFC00203D687B
S3150000404001F05EFDC2E70120F8E628460321FFF7EE
S315000040508FFC3D684EE728460321FFF789FC304672
S315000040603D6801F04DFDC1E64FF4CA70E6E628460C
S315000040700321FFF77DFC3D6896F8009076E6364B07
S31500004080002033F8199001F03BFD95F82B3069F3C9
S31500004090871385F82B30002001F002FDD8F8003098
S315000040A03D6893F8283096ED018A03F03003102B13
S315000040B02FD0202B10D1002001F022FDFCEEC87A73
S315000040C095F82B2017EE903A013B63F3040285F82E
S315000040D02B20002001F0E4FC3D6865E61F4B002024
S315000040E033F819A001F00CFD2B8D6AF301032B8523
S315000040F0002001F0D5FCD8F8003093F8283003F002
S315000041003003202BBBD0102B3D687FF44DAE96EDCF
S31500004110018A002001F0F4FC78EE087A2A8DFCEE84
S31500004120E77A002017EE903A013B63F30D222A85C9
S3150000413001F0B6FCD8F8003093F8283003F03003CD
S31500004140B7E7019A002A3FF473AE019A013A019249
S3150000415059E600BFE002FE1F908F0000A08F00000E
S31500004160052801D8FFF7A4BD03207047012838B5FC
S315000041700C4611D0022801D0002038BD052915466D
S315000041800FD0291D2046FFF793FD0028F4D040F2FA
S3150000419091139842F0D038BDBDE838400846FFF785
S315000041A0B1BA107905280ED81146FFF781FD28B956
S315000041B02879FFF789FB0028E3D0DEE740F2911368
S315000041C09842F5D0D9E7032038BD00BF2DE9F04F5E
S315000041D083B0002877D004460020627D237DDFF877
S315000041E038A194F80080DAF8001062F3070063F350
S315000041F00F20E37C91F8269063F31740E37D63F389
S315000042001F60B8F1050F0B6A0B6A0B6A0B6A0B6A23
S315000042100B6A0B6AA37D0090207E8DF8043009F0AE
S3150000422007098DF8050049D808F108036B4413F80F
S31500004230083C012B42D0022808D12379052B3DD812
S3150000424008336B4413F8083C012B37D0224605216E
S31500004250FFF78CFF0546D8BB6F46002640F2911B40
S31500004260F1B217F8010B2246FFF780FF013605462B
S3150000427008B1584523D1052EF2D14046FFF724FB5D
S315000042800546E0B9B8F1040F2ED02E4604F10C0114
S315000042904046FFF719FC054688B9C84506D009F11E
S315000042A008036B4413F8083C012B16D03EB101F00D
S315000042B0F3F801464046FFF7DBFB00E003252846FE
S315000042C003B0BDE8F08F0125284603B0BDE8F08FA6
S315000042D040F291139842F2D1BEE74846FFF712FA30
S315000042E00028E3D00546EAE7DAF8003093F82A20FA
S315000042F0D0070ED593F83220D1070AD593F8362089
S31500004300D20706D593F8386006F0010686F0010656
S31500004310BCE70126BAE700BFDC02FE1F20B14FF062
S315000043200223036000207047012070470620704773
S3150000433078B10E4B826A9A420DD1C3694BB190F89F
S315000043402420022A1A8808D042F400721A8000201B
S3150000435070470120704707207047120404D41A885A
S3150000436042F400421A80F2E7082070474344415263
S3150000437088B10B4B826A9A420FD1C3695BB190F840
S315000043802420022A1A8814BF22F4007222F4004262
S315000043901A8000207047012070470720704700BF31
S315000043A04344415250B1074B826A9A4208D1C369CD
S315000043B023B11888C0F3C030C00070470120704791
S315000043C0072070474344415218B3CB1CDBB21E2B67
S315000043D021D8002910B407DB124B048853F8244077
S315000043E001238B40234212D00F4B846A9C420AD190
S315000043F0AAB1C3698BB11031002033F81130138094
S315000044005DF8044B704707205DF8044B70470320A6
S31500004410F6E701207047032070470120F0E70220ED
S31500004420EEE700BF2403FE1F4344415218B311B305
S315000044301B4B826A9A421CD191F90020D31CDBB235
S31500004440122B1ED8002A1EDB10B4164B048853F814
S3150000445024400123934023420FD0497806290CD9E2
S31500004460C369DBB11344002083F8E0105DF8044B08
S315000044707047072070470120704703205DF8044B02
S3150000448070470320704749780629FAD9C369002B7B
S31500004490F1D01344002083F8E01070470120E5E7CF
S315000044A0434441522403FE1F002867D070B50D46D1
S315000044B082B000295FD0384B826A9A42044657D1AF
S315000044C00379012B5CD0C669002E54D0C26A32B380
S315000044D04FF0FF334FF0010C184601330CFA03F18D
S315000044E01142F9D01C2B54D01D2B4DD011304FEA60
S315000044F0400C66442E6020234FF0010E1946013B06
S315000045000EFA03F01042F9D01C2B40D01D2B39D0E7
S3150000451001F10F035B00A3EB0C035B105A1C012196
S315000045206A601E4B29720022218800922022ADF873
S315000045300610ADF804201B696A46022101A89847B7
S31500004540B8B9BDF802306B81238804335B004FF0A5
S31500004550FF326B72EA60E37A012B04D163691B6850
S31500004560C3F30B03EB60B4F902302B8202B070BDCB
S31500004570072002B070BD012002B070BD0120704757
S315000045800320F6E71C23C6E74FF01C0CB1E71A23FD
S31500004590C1E74FF01A0CACE743444152889500003E
S315000045A0E8B110B584B0002304466846CDE900336F
S315000045B0CDE9023301F01AF89DF80C3099070BD5B6
S315000045C0E3691A8812040CD41B8813F4007F0CBF0D
S315000045D000201B2004B010BD062004B010BD012031
S315000045E070471B2004B010BDC36991F81EC0B3F814
S315000045F0A2216CF30302A3F8A221B3F8A22191F839
S315000046001FC06CF30712A3F8A221B3F8A22191F8F8
S3150000461020C06CF30B22A3F8A221C369B3F8A02132
S3150000462042F00802A3F8A021B3F8A02142F08002CC
S31500004630A3F8A021B3F8A02142F40062A3F8A021B8
S315000046408A7FFF2AB3F8A02100F08C8022F00102B5
S31500004650A3F8A021B3F8A02142F00202A3F8A021FA
S31500004660B3F8A02142F00402A3F8A021CA7FFF2AD2
S31500004670B3F8A02100F08C8022F01002A3F8A0214C
S31500004680B3F8A02142F02002A3F8A021B3F8A0219C
S3150000469042F04002A3F8A02191F82020FF2AB3F8A7
S315000046A0A02100F08C8022F48072A3F8A021B3F838
S315000046B0A02142F40072A3F8A021B3F8A02142F48D
S315000046C08062A3F8A02191F81EC0C3690CF17F0295
S315000046D0D2B23A2AB3F8B02135D8CCF3011C6CF328
S315000046E00102A3F8B021B3F8B02142F00802A3F802
S315000046F0B021C87F00F17F02D2B23A2AB3F8B021C6
S315000047002BD8C0F3011060F30512A3F8B021B3F85B
S31500004710B02142F08002A3F8B02191F8201001F1F7
S315000047207F02D2B23A2AB3F8B02111D8C1F30111EF
S3150000473061F30922A3F8B021B3F8B02142F4006274
S31500004740A3F8B021704722F00802A3F8B021D0E701
S3150000475022F40062A3F8B021704722F08002A3F889
S31500004760B021DAE742F00102A3F8A021B3F8A021B4
S3150000477022F00202A3F8A021B3F8A02122F004023D
S31500004780A3F8A021CA7FFF2AB3F8A0217FF474AF53
S3150000479042F01002A3F8A021B3F8A02122F02002D3
S315000047A0A3F8A021B3F8A02122F04002A3F8A0218B
S315000047B091F82020FF2AB3F8A0217FF474AF42F4C9
S315000047C08072A3F8A021B3F8A02122F40072A3F806
S315000047D0A021B3F8A02122F48062A3F8A02172E7F9
S315000047E030B5B0F8803023F0010383B0A0F88030F4
S315000047F00388C3F34133012B038A43F47C530C46ED
S31500004800038203D1038A43F03F0303820025058018
S3150000481045822388ADF8023020226846ADF8002094
S3150000482000F0FCFFE36ADB0007D5236903B11D70C6
S31500004830222301A8019300F0F1FF03B030BD00BFB1
S31500004840002878D010B53D4B826A9A4282B0044661
S315000048506CD1C369002B6CD090F93000002310F1A5
S31500004860210FA36226D098421ADB4209344901235C
S31500004870203200F01F0003FA00F041F82200BFF3D7
S315000048804F8FBFF36F8F94F93000002808DB420981
S31500004890603200F01F00834041F8223094F9300066
S315000048A001F054F8274B94F930101B6853F8313057
S315000048B000221A6094F9310010F1210F26D0002849
S315000048C01ADB42091E490123203200F01F0003FAB9
S315000048D000F041F82200BFF34F8FBFF36F8F94F9BA
S315000048E03100002808DB4209603200F01F008340D7
S315000048F041F8223094F9310001F028F8114B94F96F
S3150000490031101B6853F8313000221A60E0692146E5
S31500004910FFF766FF2288ADF80620202301A8ADF830
S31500004920043001F071F8002002B010BD072002B07B
S3150000493010BD0120F8E70120704700BF43444152F3
S3150000494000E100E0689000001AB310B4044640B3DA
S31500004950CB1CDBB21E2B2AD8002907DB1C4B008898
S3150000496053F8200001238B4003402CD0194BA06A3A
S31500004970984210D1E36943B31031E08833F811301F
S31500004980B0F5004F9BB218D000205DF8044B1360C1
S31500004990704702207047002307205DF8044B136020
S315000049A07047234601205DF8044B136070470023CF
S315000049B003205DF8044B136070471B0400205DF86C
S315000049C0044B136070470320DFE70120DDE700BFDB
S315000049D02403FE1F434441522DE9F0418AB00028CA
S315000049E000F090810C46002900F08C818B888E782F
S315000049F0C3F30E0323B1032630460AB0BDE8F081A7
S31500004A00054606A8CDE90633CDE9083300F0EEFDEC
S31500004A10A3794BB19DF82420D70740F1788103F1A3
S31500004A207C02D2B2012AE6D9E27912F0DF0FE2D196
S31500004A30227A022ADFD8A27822B1022A00F0C381A4
S31500004A40012AD8D1E2780AB1052BD4D0012E00F084
S31500004A507181B34BAA6A9A4200F0738123692B6273
S31500004A6023882B806369AB61A3782B71A388EB80C5
S31500004A70237A85F824306369AB61237F85F8323069
S31500004A80637F85F83330A37F85F83430E37F85F87C
S31500004A90353094F8203085F836302288A14FADF8AD
S31500004AA0022000232022CDE90633CDE90833ADF8F4
S31500004AB00020FB6806A9684698470646002840F08D
S31500004AC02281BDF81E20069BEB61C2F382035B00C8
S31500004AD0C2F3401208336A722B722188924A52F846
S31500004AE0210060B90998468842F82160416820880B
S31500004AF052F820606FF30F01314342F820100C2B5F
S31500004B0000F021810E2B00F02381102B03D1E378D6
S31500004B10042B7FF470AF684600F044FF0646002879
S31500004B2040F0F180069006AAD7F810800221684668
S31500004B30C0479DF9183085F830302269002A00F008
S31500004B408C8113F1210F00F08381A27A774912013B
S31500004B50002B0968D2B2C0F28C8103F1604000F5E7
S31500004B60614080F8002351F833301D6095F930001C
S31500004B7000281BDB42096E4900F01F0302F12000EA
S31500004B80012202FA03F341F82030BFF34F8FBFF33F
S31500004B906F8F95F93000002808DB4309603300F079
S31500004BA01F00824041F8232095F9300000F0CEFE28
S31500004BB006AA03216846C0479DF9183085F83130AA
S31500004BC0A278012A00F0098113F1210F40F00C812F
S31500004BD04FF00008C5E90488A5F80A8002A8CDE9C7
S31500004BE00288CDE9048800F001FD222301939DF897
S31500004BF00830D9060ED5CDE90688CDE90888FB68C8
S31500004C0006A901A89847D0B9069B2B610123AB7270
S31500004C109DF808301A070FD50023FA680127CDE959
S31500004C200633CDE908338DF8057006A901A890472B
S31500004C3028B9069BEF726B61BDF80A306B80294676
S31500004C40E869FFF7CDFD2388ADF80A300027202359
S31500004C5002A8ADF80830CDE90677CDE9087700F06F
S31500004C6007FEEB691F805F82EB69A1781A8861F302
S31500004C704E321A80EB691A8867F3C7121A80237AB4
S31500004C80012B00F0EF804BB9E9690A8842F4807283
S31500004C900A80EA69118A63F30D211182EB69E178D2
S31500004CA0DA8961F34202DA81A288D989A2F5004243
S31500004CB0B2FA82F2520962F3CF31D981E279D98907
S31500004CC0A2F12002B2FA82F2520962F34511D981A9
S31500004CD0A2791A7306A800F089FC9DF82430C3F364
S31500004CE040025B072A733BD41AB1217B002900F0EE
S31500004CF0CC806B7A012B00F0EA80094B0022C5E9D3
S31500004D000A3200E0012630460AB0BDE8F0811806F6
S31500004D107FF571AEE27912F0DF0F7FF46CAE87E6B5
S31500004D2043444152889500002403FE1F689000000A
S31500004D3000E100E0228940F201139A427FF45BAE63
S31500004D4087E60826DFE7E378022B7FF6E4AE52E635
S31500004D50E378032B3FF4DFAE002B3FF4DCAE4AE6EC
S31500004D60EB6995F8321093F8E12161F3420283F87A
S31500004D70E12193F8E12142F0100283F8E1210121BB
S31500004D80962000F0BFFDEA6995F8331092F8E131FC
S31500004D9061F3000382F8E131EA6995F8321092F87E
S31500004DA0E13123F0080382F8E13129B192F8E131CB
S31500004DB043F0080382F8E131012140F2DC5000F0B3
S31500004DC0A1FD2A7B90E7E27812B1052B3FF413AEE2
S31500004DD02369002B7FF40FAE38E62269002A3FF4E0
S31500004DE0F3AE13F1210F33D0E27A3B491201002BC7
S31500004DF00868D2B243DB03F1604101F5614181F8F5
S31500004E00002350F833301D6095F9310000281CDB73
S31500004E10420902F12001DFF8C8C000F01F03012299
S31500004E2002FA03F34CF82130BFF34F8FBFF36F8FB5
S31500004E3095F93100002808DB4309603300F01F00B4
S31500004E4082404CF8232095F9310000F07FFDBFE643
S31500004E50684600F0D9FD0B2655E713F1210F3FF404
S31500004E60A7AE72E6EB691A8A092161F30D221A824E
S31500004E7014E71A4803F00F0C6044027673E61749EC
S31500004E8003F00F0C61440A76BBE72846FFF788FB60
S31500004E90074698B995F9300000F058FD95F930307D
S31500004EA0002BFFF626AF5A090D4803F01F036032A8
S31500004EB0012101FA03F340F822301AE7684600F0B0
S31500004EC0A3FDE8692946FFF78BFC3E461BE7214612
S31500004ED02846FFF789FB10E768900000FCEC00E02D
S31500004EE000E100E02DE9F04387B0002800F02381BF
S31500004EF00C46002900F01F81974B826A9A420546AC
S31500004F0040F00981C769002F00F01581934B028894
S31500004F1053F822600B6846F04056002B00F00581DE
S31500004F20F04333EA060640F000813A884968C2F346
S31500004F304132012A00F0F480002940F0F680002377
S31500004F4002A8CDE90233CDE9043300F04FFB9DF80A
S31500004F500820930704D4636813F0405F40F0F9809B
S31500004F60236813F040510BD03888000600F1DD802D
S31500004F70520700F14A8197F87A20002A40F0D5803E
S31500004F803A7BE168500740F0DB80002940F0CD8095
S31500004F90227C002A40F09A819BB2BB80A388BB8208
S31500004FA0A3893B816388FB80E388FB82E3897B815D
S31500004FB0236813F0405F03D1636813F0405F68D045
S31500004FC0002302A8CDE90233CDE90433019300F0B2
S31500004FD00DFB634B9DF810009B6901A99847614B37
S31500004FE0019A9A42236840F2A080002840F09D80F2
S31500004FF05D49A1FB0218039A4FEA984802FB08F89C
S315000050005A4AA2FB08284FEA9818A8F10702F82A7C
S3150000501000F28B80D80002D46268D1001CD55FFAFA
S3150000502088F387F8DE30AB7A012B00F032812368F3
S3150000503013F0805300F0F4807B8A43F480737B8204
S315000050407B8A23F480637B82E3687A8AC3F30073E6
S3150000505063F300027A8223689A0002D463689B0095
S3150000506017D55FFA88F887F8DF80236813F00053B6
S3150000507000F0C2807B8A43F400737B827B8A23F430
S3150000508000637B82E3687A8AC3F3407363F3410269
S315000050907A82237C627C1B0203F4E0631343A7F845
S315000050A06630238948F20102934263D0A7F8803024
S315000050B02B79D5F81C80022B26D0B8F80090C9F3BE
S315000050C04139B9F1010F00F0B48095F9300010F1C3
S315000050D0210F19D000F03AFC95F93030002B13DB84
S315000050E05909234803F01F036031012202FA03F332
S315000050F040F8213095F93030002B05DB590903F0D3
S315000051001F039A4040F82120228948F201039A425F
S315000051106DD023680AE00726304607B0BDE8F08365
S3150000512019B1184308423FF40AAF03263046EB6232
S3150000513007B0BDE8F0830126304607B0BDE8F0832E
S3150000514062681A4331EA0202EFD100297FF420AFE8
S31500005150EBE723680326E9E7434441522403FE1F95
S31500005160248F00003F420F0083DE1B43D34D6210A5
S3150000517000E100E02B79D5F81C80022B37D0B8F877
S315000051800030C3F34133012B9FD1B8F8103043F000
S315000051903F03A8F8103095F9310010F1210F1FD008
S315000051A000281BDB4209654900F01F0302F12000BD
S315000051B0012202FA03F341F82030BFF34F8FBFF309
S315000051C06F8F95F93100002808DB4309603300F042
S315000051D01F00824041F8232095F9310000F0B6FB0C
S315000051E0B8F8003023F04003A8F800306DE748F225
S315000051F00103A7F880308CE77A8A63F349227A8222
S315000052007B8A43F400637B823CE7B1F1405F8CD03C
S3150000521033F0704289D12A79002A3FF4B1AE84E78F
S315000052207A8A63F308227A827B8A43F480637B82DC
S315000052300AE723899342A8D095F9310010F1210F8E
S3150000524019D000F083FB95F93130002B13DB5A0996
S315000052503A4903F01F03603209FA03F341F822309A
S3150000526095F93130002B06DB5A0903F01F0309FAC2
S3150000527003F341F82230B8F8003043F04003A8F8B1
S315000052800030B8F810300A2262F30503A8F810308F
S315000052901BE700222A4BCDE90222CDE90422222275
S315000052A0DB68019202A901A8984760B901A800F03D
S315000052B0DFFA2B691A7842F080021A701A7842F0E7
S315000052C010021A70B3E6236806462FE7002302A8E9
S315000052D0CDE90233CDE9043300F088F99DF80830B2
S315000052E0D9077FF536AF227C2368072A3FF61DAF24
S315000052F0617C03297FF619AFB7F800C06168CCF36B
S31500005300413CBCF1010F01EA020102EA030010D0A0
S3150000531082427FF40AAF3A88120607D400293FF486
S315000053203BAE2289002A3FF437AEFEE60028F5D0D0
S31500005330FBE68242EFD08A42EDD0F6E600E100E0DD
S315000053408895000010B584B0EFF3058001F0FAFAF5
S31500005350EFF303830F4A103B12685BB252F8333007
S315000053601C68EFF30380103840B200F0EFFA5CB12E
S3150000537000238DF80630236A2188A269ADF804104F
S3150000538002920BB101A89847EFF3058001F0D8FA15
S3150000539004B010BD68900000034668B1074AB2F831
S315000053A00011C1F30001197092F8003123F00103D6
S315000053B0002082F8003170470120704700C001408C
S315000053C0104991F8043143F0010381F80431B1F832
S315000053D004318446D8070AD54FF0FF3300E07BB18D
S315000053E0B1F80421D20703F1FF33F8D443B1054ADB
S315000053F092F800316CF30003002082F80031704708
S315000054001420704700C0014070B5204D82B02B6853
S3150000541098470120FFF7D4FFAE6800210320B0476C
S315000054201B4AEC69019240F20313ADF800300320E9
S31500005430A047B0F5C97FFAD169460520B04728B123
S3150000544040F29113984201D000BEEC690520A047B6
S31500005450B0F5C97FFAD10F4B0093002140F201222B
S315000054608DF806102B69ADF804206946052098478B
S3150000547000B100BE2B6E04209847AB6A0120984706
S31500005480EB6A9847AB6D984702B070BD248F000059
S315000054900000A0410102020100B5064B83B00022C4
S315000054A09B69019201A906209847019803B05DF80F
S315000054B004FB00BF248F000010B403782BB1012B2E
S315000054C03BD000205DF8044B704742683F498A4252
S315000054D04CD93F4B3F4C4FF0F10C83F804C0197A7E
S315000054E041F004011972197A41F008011972197A0A
S315000054F041F001011972197A41F002011972A242B2
S315000055004FF0F00119715BD983F804C01A7A42F0A2
S3150000551010021A72197102212F4A017392F81C3176
S3150000552003F007038B423EBF92F81C3161F302037E
S3150000553082F81C310378012BC3D18368234A934236
S315000055401FD9244A934231D9234A017B92F81C3150
S3150000555003F007039942B4D092F81C3161F30203B9
S3150000556082F81C3100205DF8044B70471B498A42C3
S3150000557029D8194A037392F81C315DF8044B0020B0
S315000055807047134BF1221A711A7A22F004021A722A
S315000055901A7A22F008021A721A7A22F001021A7294
S315000055A01A7AF02122F002021A721971084AF123BE
S315000055B01371137AF02123F0100313721171C3E7EC
S315000055C0074B9A42A7D80121A6E700BF000E27077E
S315000055D00020004000C2EB0B00C0014000B4C40430
S315000055E00068890900230370704700BF0278037BB7
S315000055F022F01F0242F0130223F0070341F2040CCB
S3150000560041F2360143F0010302700222C0E90112A1
S31500005610A0F802C003737047037823F0030343F036
S3150000562003030370704700BF014B0360704700BF60
S31500005630E48F000002483022002102F050BA00BF79
S315000056402C03FE1F024B43F820100020704700BFBA
S315000056502C03FE1F08B56F4BB3F84031D80700F195
S31500005660CB806C4BB3F84031990700F1B880694B99
S31500005670B3F840315A0700F1A580664BB3F84031C4
S315000056801B0700F19280634BB3F84031D8067FD4F4
S31500005690604BB3F840315906C3F380106CD45D4BB0
S315000056A0B3F840311A065AD45A4BB3F84031DB05E9
S315000056B048D4584BB3F84031980536D4554BB3F817
S315000056C04031590524D4534BB3F840311A0512D44E
S315000056D0504BB3F84031DB0400D408BD4E4BDB6AB7
S315000056E00BB10B2098474B4AB2F8303143F4805344
S315000056F0A2F8303108BD484B9B6A0BB10A20984787
S31500005700444AB2F8303143F40063A2F83031DFE79F
S31500005710414B5B6A0BB1092098473E4AB2F83031DB
S3150000572043F48063A2F83031CDE73B4B1B6A0BB1E3
S3150000573008209847374AB2F8303143F40073A2F88C
S315000057403031BBE7344BDB690BB107209847314A50
S31500005750B2F8303143F48073A2F83031A9E72E4B0A
S315000057601B680BB1002098472A4AB2F8303143F043
S315000057708003A2F8303197E7274B5B6803B198475F
S31500005780244AB2F8303143F04003A2F8303186E7BC
S31500005790214B9B690BB1062098471E4AB2F830315F
S315000057A043F01003A2F8303172E71B4B5B690BB173
S315000057B005209847174AB2F8303143F00803A2F89B
S315000057C0303160E7144B1B690BB104209847114A2E
S315000057D0B2F8303143F00403A2F830314DE70E4BF6
S315000057E09B680BB1022098470A4AB2F8303143F061
S315000057F00203A2F830313AE7074BDB680BB103200E
S315000058009847044AB2F8303143F00103A2F8303128
S3150000581027E700BF006000402C03FE1F0378452BDE
S3150000582020D8114AD35CFF2B07D090F801C04188DD
S3150000583013F0200003F01F0201D00320704710B5BB
S315000058409B090A4C54F82340EFF3108E012383F38F
S3150000585010886144521A93402268134323608EF3E2
